:100000000C9462000C948A000C948A000C948A0070
:100010000C948A000C948A000C948A000C948A0038
:100020000C948A000C948A000C948A000C941A0296
:100030000C948A000C948A000C948A000C948A0018
:100040000C94D0010C948A000C948A000C948A00C1
:100050000C948A000C948A000C948A000C948A00F8
:100060000C948A000C948A000000000024002700F1
:100070002A0000000000250028002B0000000000DE
:1000800023002600290004040404040404040202DA
:100090000202020203030303030301020408102007
:1000A0004080010204081020010204081020000012
:1000B0000008000201000003040700000000000027
:1000C0000000EA0311241FBECFEFD8E0DEBFCDBF92
:1000D00011E0A0E0B1E0E8EFF8E002C005900D9279
:1000E000A030B107D9F721E0A0E0B1E001C01D9236
:1000F000A233B207E1F710E0C2E6D0E004C02197D6
:10010000FE010E947404C136D107C9F70E94D602CD
:100110000C947A040C9400008F929F92AF92BF923D
:10012000FF920F931F93CF93DF93F0902F012BE05B
:100130002F1508F44CC02091310108E512E0021B94
:10014000110927FD1395000F111F000F111F20919A
:100150003001C8E8D0E0C21BD10927FDD395CC0FF0
:10016000DD1FCC0FDD1F4E010D2E000CAA08BB08B1
:100170009801012E000C440B550B281939094A0926
:100180005B09DC010E942F0424EB30E040E050E0EA
:100190000E940504820E931EA41EB51E8C169D0699
:1001A0002CF0E801801691060CF4E4012297CC0FA4
:1001B000DD1F2FB7F8948F2D90E0FC01EE0FFF1F8D
:1001C000E80FF91FE55FFE4FD283C1832FBFDF9198
:1001D000CF911F910F91FF90BF90AF909F908F9004
:1001E0000895833081F028F4813099F08230A9F0AD
:1001F00008958730A9F08830C9F08430B1F4809137
:1002000080008F7D03C0809180008F778093800075
:10021000089584B58F7784BD089584B58F7DFBCF15
:100220008091B0008F778093B00008958091B000E6
:100230008F7DF9CF1F93CF93DF93282F30E0F90103
:10024000E255FF4F8491F901E656FF4FD491F90131
:10025000EA57FF4FC491CC23A9F0162F81110E94B9
:10026000F100EC2FF0E0EE0FFF1FEE58FF4FA591CD
:10027000B4918FB7F894EC91111108C0D095DE239A
:10028000DC938FBFDF91CF911F910895DE2BF8CFC4
:10029000CF93DF9390E0FC01E656FF4F24918A57FD
:1002A0009F4FFC0184918823D1F090E0880F991F23
:1002B000FC01E859FF4FA591B491FC01EE58FF4FA6
:1002C000C591D49161110EC09FB7F8948C91E22F23
:1002D000E0958E238C932881E223E8839FBFDF91F2
:1002E000CF9108958FB7F894EC91E22BEC938FBFE8
:1002F000F6CF3FB7F8948091070190910801A09143
:100300000901B0910A0126B5A89B05C02F3F19F03D
:100310000196A11DB11D3FBFBA2FA92F982F882785
:10032000BC01CD01620F711D811D911D42E0660F60
:10033000771F881F991F4A95D1F708958F929F9232
:10034000AF92BF92CF92DF92EF92FF924B015C018E
:100350000E9479016B017C010E9479016C197D0971
:100360008E099F09683E734081059105A8F321E03D
:10037000821A9108A108B10888EEC80E83E0D81E41
:10038000E11CF11C81149104A104B10429F7FF9030
:10039000EF90DF90CF90BF90AF909F908F90089597
:1003A0001F920F920FB60F9211242F933F938F93AA
:1003B0009F93AF93BF938091030190910401A0910B
:1003C0000501B09106013091020123E0230F2D3782
:1003D00058F50196A11DB11D2093020180930301E0
:1003E00090930401A0930501B09306018091070149
:1003F00090910801A0910901B0910A010196A11DF7
:10040000B11D8093070190930801A0930901B09357
:100410000A01BF91AF919F918F913F912F910F90C2
:100420000FBE0F901F90189526E8230F0296A11D6E
:10043000B11DD2CF1F920F920FB60F9211242F939E
:100440003F934F935F936F937F938F939F93AF935C
:10045000BF93CF93DF93EF93FF9380910101C091FE
:100460000001D0E087FF24C0109285001092840024
:10047000809101018F5F8093010180910101082E1D
:10048000000C990B8C179D0724F4809101018C308E
:10049000C4F18091840090918500049680349C4939
:1004A00008F47AC08091840090918500049676C00B
:1004B00080910101082E000C990B8C179D07C4F642
:1004C000E09101018E2FEE0F990BFC01EE0FFF1F43
:1004D000E80FF91FE55FFE4F808186FFC9CFE091ED
:1004E00001018E2FEE0F990BFC01EE0FFF1FE80F9D
:1004F000F91FE55FFE4F808160E08F730E941A0153
:10050000B7CF2091840030918500E09101018E2FBA
:10051000EE0F990BFC01EE0FFF1FE80FF91FE55FCF
:10052000FE4F81819281820F931F90938900809367
:100530008800E09101018E2FEE0F990BFC01EE0F68
:10054000FF1FE80FF91FE55FFE4F808186FF11C096
:10055000E09101018E2FEE0F990BFC01EE0FFF1FB2
:10056000E80FF91FE55FFE4F808161E08F730E9405
:100570001A01FF91EF91DF91CF91BF91AF919F91C0
:100580008F917F916F915F914F913F912F910F903C
:100590000FBE0F901F90189580E49CE990938900FE
:1005A000809388008FEF80930101E3CF789484B526
:1005B000826084BD84B5816084BD85B5826085BD5F
:1005C00085B5816085BD80916E00816080936E00ED
:1005D00010928100809181008260809381008091DF
:1005E0008100816080938100809180008160809390
:1005F00080008091B10084608093B1008091B00050
:1006000081608093B00080917A00846080937A004A
:1006100080917A00826080937A0080917A00816074
:1006200080937A0080917A00806880937A0010929B
:10063000C10061E088E00E94480160E083E00E9420
:10064000480180912F018C3008F051C061E08AE0B0
:100650000E94480180912F01282F30E0F901EE0F10
:10066000FF1FE20FF31FE55FFE4F9081907C9A60C1
:10067000908310923001109231012CE0622F0E9481
:100680006804829FB001112430E020E0AB01420FEA
:10069000531FFA01EE0FFF1FE40FF51FE55FFE4F3A
:1006A000908196FD16C02F5F3F4F2C30310571F7BA
:1006B00081110FC01092800082E08093810010921F
:1006C000850010928400B19A80916F0082608093BF
:1006D0006F00E0912F018E2F90E0FC01EE0FFF1FC5
:1006E000E80FF91FE55FFE4F808180648083C1EBD6
:1006F000D0E00DE910E099E8E92E90E0F92E20E035
:10070000C22E20E0D22EFE018491F801A490F701C0
:10071000B490BB20C1F081110E94F100EB2DF0E0FC
:10072000EE0FFF1FE458FF4FA591B4918C91A822C2
:1007300051F061E088E00E941A01C114D10419F35C
:100740000E940000E0CF60E088E00E941A0168E8A3
:1007500073E180E090E00E949E0161E088E00E94E9
:100760001A0168EE73E080E090E00E949E0184EB45
:1007700090E00E948C0068EE73E080E090E00E94C0
:100780009E0190E080E00E948C0060E777E180E0CD
:1007900090E00E949E0184EB90E00E948C0068EE45
:1007A00073E080E090E00E949E0161E088E00E949A
:1007B0001A0160E27EE480E090E00E949E0160E029
:1007C00088E00E941A0160E177E280E090E00E94F8
:1007D0009E01B3CF809100018C3098F491E0980F86
:1007E0009093000180932F0190E0FC01EE0FFF1F1A
:1007F000E80FF91FE55FFE4F88EB9BE09283818352
:1008000008958FEF80932F010895052E97FB1EF416
:1008100000940E941C0457FD07D00E94370407FC77
:1008200003D04EF40C941C045095409530952195BE
:100830003F4F4F4F5F4F089590958095709561950C
:100840007F4F8F4F9F4F08950E945904A59F900D91
:10085000B49F900DA49F800D911D11240895B7FFA2
:100860000C9424040E942404821B930B0895A1E29B
:100870001A2EAA1BBB1BFD010DC0AA1FBB1FEE1F1A
:10088000FF1FA217B307E407F50720F0A21BB30B65
:10089000E40BF50B661F771F881F991F1A9469F7E1
:1008A00060957095809590959B01AC01BD01CF013D
:1008B0000895A29FB001B39FC001A39F700D811D39
:1008C0001124911DB29F700D811D1124911D089559
:1008D000991B79E004C0991F961708F0961B881F92
:1008E0007A95C9F780950895EE0FFF1F0590F49152
:0808F000E02D0994F894FFCFFC
:00000001FF
